:020000040800F2
:1000000028060020C10100087F260008E52300081B
:100010007D26000809060008D12F00080000000016
:100020000000000000000000000000005127000850
:100030001906000800000000812600085327000868
:10004000DB010008DB010008DB010008DB01000820
:10005000DB010008DB010008DB010008DB01000810
:10006000DB010008DB010008DB010008DB01000800
:10007000DB010008DB010008DB010008DB010008F0
:10008000DB010008DB010008DB010008DB010008E0
:100090000D060008DB010008DB010008DB01000899
:1000A000DB01000841280008DB010008DB01000833
:1000B000DB010008DB010008DB010008DB010008B0
:1000C000DB010008DB010008DB010008DB010008A0
:1000D000DB010008DB010008DB010008DB01000890
:1000E000DB010008DB010008DB010008DB01000880
:1000F000DB010008DB010008DB010008DB01000870
:10010000DB010008DB010008DB010008DB0100085F
:10011000DB010008DB010008DB010008DB0100084F
:10012000DB010008DB010008DB010008DB0100083F
:10013000DB010008DB010008DB010008DB0100082F
:10014000DB010008DB010008DB010008DB0100081F
:10015000DB010008DB010008DB010008C52F0008F7
:10016000DB010008DB010008DB010008DB010008FF
:10017000DB010008DB010008DB01000800000000D3
:10018000DB010008DB010008DB010008DB010008DF
:10019000DB010008DB010008DB010008DB010008CF
:1001A0000000000000000000DB010008DFF80CD0B8
:1001B00000F018FA004800473D30000828060020EB
:1001C0000648804706480047FEE7FEE7FEE7FEE7F1
:1001D000FEE7FEE7FEE7FEE7FEE7FEE7E9270008A9
:1001E000AD0100082DE9F05F0546002092469B46D0
:1001F00088460646814640241BE02846414647463D
:10020000224600F070F953465A46C01A914110D365
:1002100011461846224600F057F92D1A67EB0108DF
:100220004F4622460120002100F04EF917EB00094D
:100230004E41201EA4F10104DFDC484631462A4627
:100240004346BDE8F09FD2B201E000F8012B491E01
:10025000FBD270470022F6E710B513460A46044663
:100260001946FFF7F0FF204610BD2DE9FE4F8046EE
:1002700081EA0300C00F0C46009021F0004123F0FA
:100280000045B8EB0200A94105D240462146904600
:100290001C460B46024623F00040104347D0270D72
:1002A000C7F30A00C3F30A510290401A0190402894
:1002B0006BDAC3F3130040F4801B0098924620B120
:1002C0000023D2EB030A63EB0B0B01985946C0F1F4
:1002D0004002504600F0F8F806460D465046594692
:1002E000019A00F010F910EB08006141002487EA40
:1002F000115284EAE7731A4340D0009A62B3019A1C
:10030000012A4FEA075215DC001B61EB02014FF096
:10031000004202EA0752CDE90042001C41F580117B
:1003200032462B4600F010F903B0BDE8F08F40468E
:100330002146F9E7001B61EB0201001C41F5801327
:1003400000185B412018A2F5001747EB030140EAB3
:10035000D570B6196D4111E06D084FEA360645EAD1
:10036000C0754FEA0752001B61EB0201001C41F50A
:10037000801149084FEA30000019514132462B469E
:1003800003B0BDE8F04F00F0D0B800980122400063
:100390000023D0EB020263EBE073009821464FEAA2
:1003A000E074B8EB000061EB0401E9E783F000437F
:1003B0005BE781F0004158E72DE9F04D81EA030445
:1003C00004F0004B21F0004514464FF0000A23F0E2
:1003D000004150EA050220D054EA01021DD0C5F3C5
:1003E0000A570246C5F31303C1F31300C1F30A56BB
:1003F00040F4801543F48013A7EB0608101BD64683
:1004000008F2FD3873EB050002D308F1010801E0A2
:1004100092185B41B8F1000F03DA00200146BDE8F5
:10042000F08D00204FF48011064684460EE0171B25
:1004300073EB050705D3121B63EB050306434CEA78
:10044000010C49084FEA300092185B4150EA01075D
:10045000EDD152EA030012D082EA040083EA0501DA
:10046000084305D0101BAB4106D20122002306E051
:1004700000224FF0004302E06FF0010253101AEB2C
:1004800006004CEB085110EB0A0041EB0B01BDE8F4
:10049000F04D00F04AB8C1F30A5210B5C1F3130190
:1004A00040F2FF3341F480119A4201DA002010BD7E
:1004B00040F233439A42A2F2334203DC524200F04C
:1004C00012F810BD904010BD202A04DB203A00FA3B
:1004D00002F1002070479140C2F1200320FA03F39B
:1004E000194390407047202A04DB203A21FA02F099
:1004F0000021704721FA02F3D040C2F1200291405E
:10050000084319467047202A06DBCB17203A41FAE8
:1005100002F043EAE07306E041FA02F3D040C2F190
:100520002002914008431946704710B5141E73F11C
:10053000000408DA401C41F1000192185B411A43A3
:1005400001D120F0010010BD2DE9F04D92469B46EF
:1005500011B1B1FA81F202E0B0FA80F22032904695
:10056000FFF7B2FF04460F4640EA0A0041EA0B01DA
:1005700053465A46084313D0114653EA010019D096
:10058000C8F140025046FFF7AEFF05460E46504602
:1005900059464246FFF798FF084305D0012004E082
:1005A00020463946BDE8F08D0020054346EAE07656
:1005B0002C4337430A986305E40AA0EB08000022A5
:1005C000FD0A44EA47540A3002D500200146E9E713
:1005D000010510196941DDE9084500196941BDE8C7
:1005E000F04DA2E7064C074D06E0E06840F001033D
:1005F00094E8070098471034AC42F6D3FFF7DAFDD1
:10060000EC3400080C350008FEE70000014800F05B
:10061000EBB900008C0000207047FEE790F8202026
:10062000012A09D090F82020022A05D0416A41F41D
:100630008021416201207047006842691143416195
:100640000020704770B490F820C0BCF1010F0BD0AF
:1006500090F820C0BCF1020F06D0416A41F480211D
:10066000416270BC01207047D0F800C0DCF808403F
:1006700014F0806F09D1DCF8084014F0006F04D149
:10068000DCF8084014F0805F57D0DCF808C0CCF3E9
:10069000016C012404FA0CF41C608B684FF4C074E4
:1006A0009BB1CD6804EB0C162B434D6843EAC503A0
:1006B0000568AB514FF4C273066803EB0C130D6968
:1006C000F550097D012909D00DE00D88CB6804EBB8
:1006D0000C1643EA45530568AB51EBE70168CD586A
:1006E00045F48075CD501179D379557941EA03618C
:1006F00093791B0443EA052319434FF4C675036835
:1007000005EB0C1559511178D37841EA03619378C0
:1007100052781B0443EA022211434FF4C473026867
:1007200003EB0C13D150006804EB0C11425842F05B
:100730000102425070BC00207047416A41F4001130
:10074000416270BC0120704790F82020012A09D036
:1007500090F82020022A05D0416A41F480214162AC
:10076000012070474148D0F8002242F00102C0F851
:100770000022D0F8002222F47C52C0F80022D0F8E7
:1007800000224B6A42EA0322C0F800220A7D0123BC
:1007900003FA02F2D0F81C329343C0F81C32CB6942
:1007A000D3B9D0F80C329343C0F80C32B1F80CC076
:1007B0004B686CF31F43D1F814C000EBCC0CCCF8A1
:1007C0004032B1F808C00B686CF31F43D1F814C075
:1007D00000EBCC0CCCF84432CB69012B1AD1D0F809
:1007E0000C321343C0F80C32B1F800C04B686CF304
:1007F0001F43D1F814C000EBCC0CCCF84032B1F858
:1008000008C0CB686CF31F43D1F814C000EBCC0CCC
:10081000CCF844328B697BB1D0F804321343C0F872
:1008200004320B6973B1D0F814321343C0F8143298
:10083000096A01290CD010E0D0F804329343C0F8C3
:100840000432EEE7D0F814329343C0F81432EFE7E5
:10085000D0F81C121143C0F81C12D0F8001221F07D
:100860000101C0F800120020704700000064004041
:10087000704710B490F820C0BCF1010F0BD090F875
:1008800020C0BCF1020F06D0416A41F480214162D0
:1008900010BC0120704711B101290ED014E0D0F82E
:1008A00000C0DCF80CC01CF0030F0DD1416A41F40C
:1008B0000011416210BC01207047D0F800C0DCF884
:1008C00010C01CF0030F74D04FF4D87C04680CEBFC
:1008D000011C54F80C4004F004049460002C6FD008
:1008E000046854F80C40E4085460046854F80CC0E0
:1008F000CCF3400CC2F80CC04FF4DA7C04680CEB6B
:10090000011C54F80C4004F00F041461046854F8FE
:100910000C40C4F307249461046854F80CC04FEAF7
:100920001C4CC2F814C04FF4DC72D0F800C002EBCB
:1009300001125CF802C083F800C0D0F800C05CF877
:1009400002C04FEA1C2C83F801C0D0F800C05CF84C
:1009500002C04FEA1C4C83F802C0D0F800C05CF81B
:100960000220120EDA704FF4DE72D0F800C002EBF3
:1009700001125CF802C083F804C0D0F800C05CF833
:1009800002C04FEA1C2C83F805C0D0F800C05CF808
:1009900002C04FEA1C4C83F806C0D0F800C05CF8D7
:1009A0000220120EDA7189B1012915D019E000E098
:1009B00006E0416A41F40011416210BC0120704719
:1009C000046854F80C40640D14608EE70068C16838
:1009D00041F02001C16004E00068016941F020019C
:1009E000016110BC002070472DE9F05F054600242E
:1009F00028684669D0F804908768D0F80CA0D0F831
:100A000010B0D0F8188016F0010F54D017F0010F75
:100A100017D00121816017F0020F03D0284600F0A3
:100A200047FA0EE017F0040F02D04FF4006408E01C
:100A300017F0080F02D04FF4805402E0284600F06F
:100A400036FA17F4807F19D029684FF480708860D7
:100A500017F4007F03D0284600F02CFA0EE017F4BC
:100A6000806F02D044F4005408E017F4006F02D005
:100A700044F4804402E0284600F01BFA17F4803F5B
:100A800019D029684FF48030886017F4003F03D0F4
:100A9000284600F011FA0EE017F4802F02D044F43B
:100AA000004408E017F4002F02D044F4803402E040
:100AB000284600F000FA16F0080F07D01AF0100FC1
:100AC00004D044F4007429681020C86016F0040FA4
:100AD0004FF0080707D01AF0080F04D02868C76045
:100AE000284600F08BF916F0020F07D02868C0687E
:100AF00010F0030F02D0284600F082F916F0400FE4
:100B000007D01BF0100F04D044F480642968102033
:100B1000086116F0200F07D01BF0080F04D02868DA
:100B20000761284600F08EF916F0100F07D02868EC
:100B3000006910F0030F02D0284600F084F916F483
:100B4000003F08D019F0100F05D029681020486028
:100B5000284600F079F916F4803F07D019F0080F05
:100B600004D028684760284600F0A7F916F4004F23
:100B70004AD019F0040F44D016F4807F04D018F046
:100B8000010F01D044F0010416F4007F04D018F0E6
:100B9000020F01D044F0020416F4806F04D018F064
:100BA000040F01D044F0040416F4006F29D018F0AB
:100BB000700F26D008F07000402815D006DC1028F1
:100BC00009D020280AD0302816D10AE050280ED0AB
:100BD000602811D10EE044F008040DE044F0100448
:100BE0000AE044F0200407E044F0400404E044F04C
:100BF000800401E044F480742868816921F0700168
:100C00008161296804204860002C05D0686A20436F
:100C100068622846FFF72CFEBDE8F09F70B50446D9
:100C2000002C03D094F8200010B104E0012070BD26
:100C3000204600F0A7F82068016821F00201016059
:100C400000F080FA0546206840684FF0050610F075
:100C5000020F11D000F076FA401B0A2807D9606A0B
:100C600040F40030606284F82060012070BD20688C
:100C7000406810F0020FEDD12068016841F00101D9
:100C8000016000F05FFA05462068406810F0010F2F
:100C900011D100F057FA401B0A2807D9606A40F4C6
:100CA0000030606284F82060012070BD20684068D8
:100CB00010F0010FEDD0207E01283FD020680168A0
:100CC00021F080010160607E01283DD0206801682C
:100CD00021F040010160A07E01283BD0206801681E
:100CE00021F020010160E07E012839D020680168F0
:100CF00041F010010160207F012837D02068016891
:100D000021F008010160607F012835D0206801686A
:100D100021F004010160E168A0686269084321696B
:100D2000114308436168491E08432168C8610020D7
:100D30006062012084F82000002070BD20680168F6
:100D400041F080010160BEE72068016841F0400188
:100D50000160C0E72068016841F020010160C2E73E
:100D60002068016821F010010160C4E72068016873
:100D700041F008010160C6E72068016841F0040104
:100D80000160C8E710B586B0044614216846FFF735
:100D900061FA17492068884227D116480021026865
:100DA00042F000720260006800F000700590114887
:100DB0001038026842F0080202600068022200F067
:100DC000080005900320CDE90210CDE900020920BA
:100DD00004906946084800F083F800221146142068
:100DE00000F008FA142000F0F8F906B010BD000079
:100DF0000064004040380240000C02407047000090
:100E000000B589B007AB6A460021FFF732FD002824
:100E100011D14FF40061094800F089F90098A0F55C
:100E20000071333907D10649002007AA135C0B541F
:100E3000401C0828FADB09B000BD00000010024089
:100E40001000002070477047704770B5044694F852
:100E50002000012805D0606A40F400206062012073
:100E600070BD022084F820002068016821F0010193
:100E7000016000F067F905462068406810F0010F36
:100E800012D000F05FF9401B0A2808D9606A40F4CC
:100E900000306062052084F82000012070BD2068C9
:100EA000406810F0010FECD10020606270BD704707
:100EB00070477047704770477047704790F835101B
:100EC000022903D08021416501207047052180F867
:100ED00035100068016821F00101016000207047B1
:100EE0002DE9F84F0022DFF82482DFF824924FF03A
:100EF000010A4FF0030E0F270AFA02F50B682B4088
:100F0000AB427DD1D1F804C0BCF1020F02D0BCF1DC
:100F1000120F12D14FEAD20C00EB8C0CDCF82060DF
:100F20005407E40E07FA04FB26EA0B06D1F810B0CA
:100F30000BFA04F43443CCF8204006684FEA420C24
:100F40000EFA0CF4A64391F804B00BF0030B0BFA65
:100F50000CFB4BEA060606604E68012E05D0022EF9
:100F600003D0112E01D0122E11D18668A643D1F8DC
:100F70000CB00BFA0CFB4BEA06068660466826EAC4
:100F800005050E79C6F30016964035434560C568E1
:100F900025EA04048D6805FA0CFC4CEA040CC0F840
:100FA0000CC0D1F804C01CF0805F29D0D8F800C074
:100FB0004CF4804CC8F800C0D8F800C00CF4804C49
:100FC000CDF800C022F0030C0CF1804505F59835F2
:100FD000D5F808C89407240F07FA04F62CEA060689
:100FE000A0F1804CBCF5003C72D0A0F1804CBCF567
:100FF000013C70D0A0F1804CBCF5023C6ED000E00A
:101000005DE0A0F1804CBCF5033C6AD0A0F1804CBF
:10101000BCF5043C68D0A0F1804CBCF5053C66D022
:10102000A0F1804CBCF5063C64D0A0F1804CBCF52E
:10103000073C62D0A0F1804CBCF5083C60D0A0F128
:10104000804CBCF5093C5ED04FF00A0C0CFA04FC55
:101050004CEA060CC5F808C8D9F800C02CEA030C05
:101060004C6814F4803F01D04CEA030CC9F800C06E
:10107000284CD4F800C02CEA030C4D6815F4003F4E
:1010800001D04CEA030CC4F800C0234CD4F800C0D3
:101090002CEA030C4D6815F4801F01D04CEA030CB8
:1010A000C4F800C01D4CD4F800C02CEA030C4D68F5
:1010B00015F4001F01D04CEA030CC4F800C0521C08
:1010C000102AFFF419AFBDE8F88F01E003E005E056
:1010D0004FF0000CBAE74FF0010CB7E74FF0020CED
:1010E000B4E74FF0030CB1E74FF0040CAEE74FF05C
:1010F000050CABE74FF0060CA8E74FF0070CA5E78F
:101100004FF0080CA2E74FF0090C9FE7443802406B
:10111000003C0140043C0140083C01400C3C0140C3
:101120000069084201D001207047002070474269E1
:10113000514041617047002A01D081617047090424
:10114000816170470148806870470000800000207E
:101150000248816802781144816070478000002055
:1011600010B50B48016841F400710160016841F459
:1011700080610160016841F480710160032000F02A
:101180006DF8002000F006F800F026F8002010BDF1
:10119000003C024070B504460D4D4FF47A7128783A
:1011A000B1FBF0F00B490968B1FBF0F000F008FD6D
:1011B00008B1012070BD102C07D200222146501E1C
:1011C00000F018F86C60002070BD012070BD0000B8
:1011D000800000207C000020704700F01F010122E9
:1011E00002FA01F14009800000F1E020C0F800118E
:1011F0007047000010B4184B1B68C3F30223C3F1FF
:10120000070CBCF1040F01D94FF0040C1C1D072C76
:1012100001D2002300E0DB1E012404FA0CFCACF137
:10122000010C0CEA0101994004FA03F35B1E1A4019
:101230001143002808DA00F00F0000F1E020090156
:1012400080F8141D10BC704700F1E020090180F8FF
:10125000001410BC704700000CED00E000F0070027
:10126000064A11684FF6FF03194041EA002040F09A
:10127000FD7040F080601060704700000CED00E0F1
:101280002DE9F04704460D46002C13D0DFF85091AD
:10129000D9F80000EFB200F00F00A8420DD289F893
:1012A0000070D9F8000000F00F00A84205D001201E
:1012B000BDE8F0870120BDE8F0872068494E10F0B6
:1012C000020F14D010F0040F03D0306840F4E05047
:1012D0003060207810F0080F03D0306840F4604090
:1012E00030603068A16820F0F0000843306020785A
:1012F00010F0010F3ED060683B49012808D0022859
:101300000DD003280BD0096811F0020F28D00AE095
:10131000096811F4003F06D10120BDE8F087096893
:1013200011F0007F19D0316821F0030108433060CB
:10133000FFF708FF80463068616800F00C00B0EBF2
:10134000810F17D041F2883AFFF7FCFEA0EB0800AE
:10135000504508D90320BDE8F0870120BDE8F0879B
:101360000120BDE8F0873068616800F00C00B0EB48
:10137000810FE9D1D9F8000000F00F00A8420AD986
:1013800089F80070D9F8000000F00F00A84202D0E0
:101390000120BDE8F087207810F0040F05D03068F8
:1013A000E16820F4E05008433060207810F0080F26
:1013B00006D03068216920F4604040EAC100306006
:1013C00000F03EF83168094AC1F30311515CC8408E
:1013D000074908600020FFF7DDFE0020BDE8F08728
:1013E000003C02400838024000380240D234000875
:1013F0007C00002001480068704700007C0000204D
:1014000000B5FFF7F7FF04490968044AC1F38221D8
:10141000515CC84000BD000008380240E2340008BA
:1014200000B5FFF7E7FF04490968044AC1F34231F8
:10143000515CC84000BD000008380240E23400089A
:1014400010B51748006810F00C01164816D0164B5E
:10145000042912D0082911D1144C216801F03F024F
:10146000216811F4800F0AD02068C0F38810A0FB17
:1014700003010023FEF7B6FE09E0184610BD2168FF
:101480000023C1F38811A1FB0001FEF7ABFE216828
:10149000C1F30141491C4900B0FBF1F010BD00004F
:1014A000083802400024F400001BB7000438024052
:1014B0002DE9F84F0446002C10D02078FA4D10F09A
:1014C000010F64D0F948016801F00C0104290DD026
:1014D000006800F00C00082803D011E00120BDE8EE
:1014E000F88FF348006810F4800F09D0286810F4D2
:1014F000003F4CD06068002849D10120BDE8F88F3A
:101500006068B0F5803F14D0B0F5A02F16D02868E1
:1015100020F480302860286820F4802028606068EB
:1015200010B3FFF70FFE0646286810F4003F0ED0F8
:101530002DE0286840F480302860F0E7286840F407
:1015400080202860286840F480302860E7E7FFF7B3
:10155000F9FD801B642802D90320BDE8F88F2868B4
:1015600010F4003FF3D012E0FFF7ECFD06462868C8
:1015700010F4003F0BD0FFF7E5FD801B642802D973
:101580000320BDE8F88F286810F4003FF3D12078DD
:10159000C84F10F0020F4FF0000856D0C348016842
:1015A00011F00C0F15D0006800F00C00082804D1D1
:1015B000BF48006810F4800F0BD0E06878B30120BA
:1015C0003860FFF7BFFD0646286810F0020F12D002
:1015D0001DE0286810F0020F05D0E068012802D055
:1015E0000120BDE8F88F2868216920F0F80040EA62
:1015F000C100286029E0FFF7A5FD801B022802D961
:101600000320BDE8F88F286810F0020FF3D0286897
:10161000216920F0F80040EAC100286015E0FFE7EA
:10162000C7F80080FFF78EFD0646286810F0020F0D
:101630000BD0FFF787FD801B022802D90320BDE8ED
:10164000F88F286810F0020FF3D1207810F0080FFF
:1016500033D09948DFF864926169B9B10121016022
:10166000FFF770FD0646D9F8000010F0020F24D1F4
:10167000FFF768FD801B022802D90320BDE8F88F20
:10168000D9F8000010F0020FF2D016E0C0F8008088
:10169000FFF758FD0646D9F8000010F0020F0CD0F5
:1016A000FFF750FD801B022802D90320BDE8F88F08
:1016B000D9F8000010F0020FF2D1207810F0040FDA
:1016C00073D04FF00009DFF8F8A1DAF8000010F04D
:1016D000805F0CD1DAF8000040F08050CAF80000BA
:1016E000DAF8000000F0805000904FF00109DFF8B8
:1016F000D4B1DBF8000010F4807F1AD1DBF80000D1
:1017000040F48070CBF80000FFF71CFD0646DBF8C4
:10171000000010F4807F0CD1FFF714FD801B02281D
:1017200002D90320BDE8F88FDBF8000010F4807FB9
:10173000F2D0A068DFF890B1012818D005281DD09C
:10174000DBF8000020F00100CBF80000DBF800001F
:1017500020F00400CBF80000A06838B3FFF7F2FCDB
:101760000646DBF8000010F0020F14D03CE0DBF876
:10177000000040F00100CBF80000EDE7DBF80000CE
:1017800040F00400CBF80000DBF8000040F001005E
:10179000CBF80000E0E7FFF7D5FC811B41F2883071
:1017A000814204D90320BDE8F88F26E005E0DBF88C
:1017B000000010F0020FEED016E0FFF7C3FC064663
:1017C000DBF8000010F0020F0ED0FFF7BBFC811B0E
:1017D00041F28830814202D90320BDE8F88FDBF85E
:1017E000000010F0020FF0D1B9F1010F05D1DAF8C5
:1017F000000020F08050CAF80000A069E8B32B492F
:10180000096801F00C0108296BD0022810D0C7F834
:101810006080FFF797FC0446286810F0007F5ED0D8
:10182000FFF790FC001B022855D90320BDE8F88F74
:10183000C7F86080FFF786FC0646286810F0007F36
:101840000BD0FFF77FFC801B022802D90320BDE8E4
:10185000F88F286810F0007FF3D1216AE069A26A4E
:101860000843616A4FF0FF33890103EB520241EAFA
:101870000241084394F82C1000E030E040EA016196
:101880000B48016001203866FFF75CFC04462868BD
:1018900010F0007F23D1FFF755FC001B022815D95B
:1018A0000320BDE8F88F1CE00038024008380240F1
:1018B0000438024000004742800E4742743802401C
:1018C000403802400070004070380240286810F034
:1018D000007FE0D003E0286810F0007FA0D1002056
:1018E000DFE70120DDE770B50446002C05D00025B8
:1018F000A56294F8510010B106E0012070BD84F893
:101900005050204600F030F8022084F85100206842
:10191000016821F040010160A16860682269084304
:10192000E1681143084361690843218B01F40071A8
:101930000843E1690843216A0843A16A0843216812
:101940000860A069042101EA1040616A0843216827
:1019500048602068C16921F40061C16165650120AA
:1019600084F85100002070BD10B586B004461421E3
:101970006846FEF76FFC14492068884221D113485D
:101980000021026842F480120260006800F48010B6
:1019900005900E481438026842F020020260006888
:1019A00000F0200005904FF4607000900220CDE917
:1019B0000101032003900520049069460448FFF7C5
:1019C0008FFA06B010BD00000050014044380240BC
:1019D000001402402DE9F84F0446DDF828800D463A
:1019E00016469B4601274FF0000994F85000012845
:1019F0000ED0012084F85000FFF7A4FB824694F833
:101A00005100616801280ED0B1F5827F07D102E054
:101A10000220BDE8F88FA16809B9042803D04FF06F
:101A2000020900F0C3B845B13EB1BBF1000F04D0CC
:101A300094F85100012803D005E04FF00109B5E00A
:101A4000052084F8510000206065A663A4F83EB02C
:101A5000A4F83CB02563A4F836B0A4F834B02064F0
:101A600060642068016811F0400F03D1016841F003
:101A700040010160E068B0F5006F05D06068C8B350
:101A8000E08E01283ED06EE0606810B1E08E012843
:101A900031D121682888C860AD1CE08E401EE086E8
:101AA00029E06FB1E08E58B12068816811F0020F13
:101AB00006D02988C160AD1CE08E401EE08600275C
:101AC000E08F58B12068816811F0010F06D0C0681E
:101AD0003080B61CE08F401EE0870127B8F1FF3F41
:101AE00009D0FFF72FFBA0EB0A00404503D34FF0CE
:101AF00003095BE006E0E08E0028D2D1E08F0028E9
:101B0000CFD136E02168287808736D1CE08E401E26
:101B1000E08628E06FB1E08E58B12068816811F04E
:101B2000020F06D015F8011B0173E08E401EE086FF
:101B30000027E08F58B12068816811F0010F06D0AE
:101B4000C06806F8010BE08F401EE0870127B8F15E
:101B5000FF3F08D0FFF7F6FAA0EB0A00404502D39A
:101B60004FF0030922E0E08E0028D3D1E08F002857
:101B7000D0D14346012202212046CDF800A000F03A
:101B800092FD10B14FF0030910E052464146204645
:101B900000F077FD20B14FF001092020606505E0DD
:101BA000A06818B92068C16880680090012084F896
:101BB0005100002084F850004846BDE8F88F00002E
:101BC000401EB0F1807F01D3012070474FF0E0212B
:101BD0004861044AF02010700020886107200861E5
:101BE0000020704723ED00E07047704710B490F874
:101BF0003820012A2AD0012380F83830022280F8C8
:101C000039200268D2F804C02CF0700CC2F804C06D
:101C10000268D2F804C00C684CEA040CC2F804C094
:101C20000268D2F808C02CF0800CC2F808C0026824
:101C3000D2F808C049684CEA0101916080F8393057
:101C4000002180F8381010BC0020704710BC022022
:101C5000704710B50446002C03D094F8390010B139
:101C600007E0012010BD002084F83800204600F075
:101C70000DF8022084F83900211D206800F0E6FDEF
:101C8000012084F83900002010BD000008B500686C
:101C90000B49884212D10B48016841F001010160F3
:101CA0000068002200F00100009011461920FFF7A3
:101CB000A1FABDE808401920FFF78FBA08BD00005F
:101CC0000000014044380240022180F839100168C8
:101CD0000A6842F001020A60012180F839100020F0
:101CE00070470168CA6842F00102CA600068016872
:101CF00041F0010101600020704770B5044694F87E
:101D00003800012818D0012584F83850022084F8C2
:101D100039002068826822F0770222F47F428260D4
:101D2000086850283AD00EDC20285FD006DC002856
:101D300052D0102863D154E0022070BD30285AD010
:101D400040285CD13EE0602832D070280CD0B0F53D
:101D5000805F03D0B0F5005F51D113E02068816847
:101D600021F0070181604AE0CB684A6889682068F1
:101D700000F0DDFD2068816821F0770141F07701F6
:101D800081603CE0CB684A688968206800F0CFFD3C
:101D90002068816841F48041816030E0CA68496808
:101DA000206800F0A7FE5021206800F0CBFD26E05F
:101DB000CA684968206800F0B0FE6021206800F021
:101DC000C1FD1CE0CA684968206800F093FE40210C
:101DD000206800F0B7FD12E00021206800F0B2FD9D
:101DE0000DE01021206800F0ADFD08E02021206802
:101DF00000F0A8FD03E03021206800F0A3FD84F886
:101E00003950002084F8380070BD704770B5044622
:101E1000206801694FF0000511F0020F17D0C1686A
:101E200011F0020F13D0E91E016101202076206815
:101E3000806910F0030F03D02046FFF7E6FF05E0AE
:101E4000204600F0C7F8204600F064F925762068A7
:101E5000016911F0040F18D0C16811F0040F14D0FB
:101E60006FF004010161022020762068806910F47F
:101E7000407F03D02046FFF7C8FF05E0204600F072
:101E8000A9F8204600F046F925762068016911F08E
:101E9000080F18D0C16811F0080F14D06FF00801B6
:101EA0000161042020762068C06910F0030F03D080
:101EB0002046FFF7AAFF05E0204600F08BF82046F9
:101EC00000F028F925762068016911F0100F18D06C
:101ED000C16811F0100F14D06FF0100101610820DB
:101EE00020762068C06910F4407F03D02046FFF7B9
:101EF0008CFF05E0204600F06DF8204600F00AF95E
:101F000025762068016911F0010F09D0C16811F030
:101F1000010F05D06FF001010161204600F018F9B2
:101F20002068016911F0800F09D0C16811F0800F9D
:101F300005D06FF0800101612046FFF755FE206853
:101F4000016911F0400F09D0C16811F0400F05D0B0
:101F50006FF040010161204600F034F9206801690A
:101F600011F0200F0BD0C16811F0200F07D06FF0D7
:101F7000200101612046BDE87040FFF736BE70BD0C
:101F800010B586B0044614216846FEF763F90E4981
:101F90002068884215D10D480021026842F00802ED
:101FA0000260006800F0080005904FF47040009057
:101FB0000220CDE90101CDE9031069460448FEF78E
:101FC0008FFF06B010BD000000080040303802400E
:101FD000000C0240704770B504460D4694F8380076
:101FE00001280DD0012684F83860022084F83900D9
:101FF00042B1042A1AD0082A2DD00C2A53D13EE02F
:10200000022070BD2946206800F0A4FC2068816988
:1020100041F0080181612068816921F0040181613A
:10202000206881692A69114381613CE02946206862
:1020300000F0C4FC2068816941F40061816120687E
:10204000816921F480618161206881692A6941EA9E
:102050000221816127E02946206800F0E7FC206822
:10206000C16941F00801C1612068C16921F0040122
:10207000C1612068C1692A691143C16113E0294621
:10208000206800F00BFD2068C16941F40061C16166
:102090002068C16921F48061C1612068C1692A6931
:1020A00041EA0221C16184F83960002084F83800D7
:1020B00070BD10B50446002C03D094F8390010B15F
:1020C00007E0012010BD002084F83800204600F011
:1020D0000DF8022084F83900211D206800F0B6FBBD
:1020E000012084F83900002010BD000008B5006808
:1020F0000649884208D10648016841F004010160A0
:10210000006800F00400009008BD000000080040D6
:1021100040380240704710B504460122206800F0A4
:10212000F9FB2168A1F18040B0F5803004D0A1F125
:102130008040B0F5823003D1486C40F400404864E0
:102140002068016841F001010160002010BD00001D
:1021500038B51449884224D14FF480411248FEF723
:10216000E6FF9FED120B134C53EC102B94ED020B7A
:1021700051EC100BFEF720F9FEF78DF9A080002539
:10218000010A00958DF800108DF8010069460A4893
:1021900001F01AF99FED090BA58084ED020B00F008
:1021A000E7FF38BD0C010020001402409A9999996C
:1021B0009999B93F000000208C0000200000000029
:1021C000000000007047704710B504462268106890
:1021D000D168526900F00F03002B0AD110F0200FD4
:1021E00007D011F0200F04D02046BDE8104000F0C9
:1021F000C9BC002B6BD002F0010301F4907C53EAC0
:102200000C0364D010F0010F06D011F4807F03D0CE
:10221000E36B43F00103E36310F0040F06D012F008
:10222000010F03D0E36B43F00203E36310F0020FEE
:1022300006D012F0010F03D0E36B43F00403E36315
:1022400010F0080F06D012F0010F03D0E26B42F03D
:102250000802E263E26B002A2ED010F0200F05D0B6
:1022600011F0200F02D0204600F08CFC206840695D
:10227000C0F38010E16B11F0080F00D108B32046C5
:1022800000F065FC2068416911F0400F15D04169EC
:1022900021F040014161606B58B118490165606BE4
:1022A000FEF70CFE002807D0606B016DBDE8104002
:1022B00008472046FFF787FF10BD2046FFF783FF42
:1022C00010BD2046FFF77FFF0020E06310BD10F037
:1022D000800F07D011F0800F04D02046BDE81040D9
:1022E00000F03CBE10F0400FF0D011F0400FEDD0E8
:1022F0002046BDE8104000F038BC00003F2B00082D
:1023000070B50446002C04D094F83900002510B1B3
:1023100006E0012070BD84F83850204600F022F815
:10232000242084F839002068C16821F40051C1607C
:10233000204600F071FC2068016921F490410161A0
:102340002068416921F02A0141612068C16841F497
:102350000051C160E563202084F8390084F83A0018
:10236000002070BD10B586B0044614216846FDF704
:1023700071FF18492068884229D11748016841F047
:1023800020010160006800F0200005901248143818
:10239000016841F0400101600068694600F04000BA
:1023A00005904FF48440009002200190012002909B
:1023B00003200390082004900848FEF791FD0022B6
:1023C00011464720FEF716FF4720FEF706FF06B02E
:1023D00010BD0000001401404438024000180240C3
:1023E00070477047FEE700000F4810B50D490160C7
:1023F0000421416000214FF450228160C0E90312A2
:102400004FF4A0024261017641768176C176017770
:102410004177FEF703FC002803D0BDE81040FEF72B
:10242000FCB810BD006400408C0000202DE9F04194
:1024300086B014216846FDF70DFF2B480024016883
:1024400041F040010160016801F04001059101681F
:1024500041F001010160016801F00101059101688D
:1024600041F008010160016801F00801059101686F
:1024700041F080010160016801F08001059101686F
:1024800041F020010160016801F02001059101681F
:1024900041F0100101600068144F00F0100044F298
:1024A00040050590002229463846FEF744FEDFF835
:1024B0004080FE14002231464046FEF73CFE009567
:1024C0000125CDE90154694638460394FEF708FD1D
:1024D0000096CDE90154694640460394FEF700FD9D
:1024E00006B0BDE8F0810000303802400014024020
:1024F00000100240104810B50E4901604FF482717F
:10250000416000218160C1604FF400720161C0E947
:1025100005123022C0E90721416281620A21C162AD
:10252000FFF7E1F9002803D0BDE81040FEF775B8C9
:1025300010BD000000500140B400002010B586B06E
:1025400000241748009401940294039404941349BE
:102550000594016042F20F71C0E9011440F28F61ED
:10256000C0E903144461FFF774FB08B1FEF755F8A6
:102570004FF48050009069460948FFF7BEFB08B150
:10258000FEF74BF8049404A905480594FFF72EFBC9
:10259000002801D0FEF741F806B010BD0000014050
:1025A0000C01002010B58AB0002407941C21684655
:1025B0000894FDF74FFE2248204901608B21C0E9B5
:1025C000011442F20F71C0E90314FFF772FD08B164
:1025D000FEF723F8079407A919480894FFF706FBAC
:1025E00008B1FEF71AF86020CDE900040294002239
:1025F000694613480494FFF7EEFC08B1FEF70DF8A6
:10260000042269460E48FFF7E6FC08B1FEF705F81C
:10261000082269460A48FFF7DEFC08B1FDF7FDFF16
:102620000C2269460648FFF7D6FC08B1FDF7F5FF16
:102630000348FFF7A5FC0AB010BD000000080040E9
:10264000480100200C4810B50A4901604FF4E131FF
:102650004160002181600C22C160C0E904128161E7
:10266000C161FFF74DFE002803D0BDE81040FDF723
:10267000D4BF10BD0014014084010020FEE7704764
:10268000704738B504460B46009200228021204650
:1026900000F009F828B1606D40F02000606503206B
:1026A00038BD002038BD2DE9F0410446069E88461D
:1026B00017461D462068806838EA000015D00020C3
:1026C000B84240D0B5F1FF3F35D025B1FEF73AFD15
:1026D000801BA8422FD32068416821F0E0014160AF
:1026E0006068B0F5827F02D00DE00120E8E7A068C5
:1026F000B0F5004F02D0B0F5806F04D120680168BA
:1027000021F040010160A06AB0F5005F0AD12068A5
:1027100001684DF6FF72114001602068016841F4C4
:1027200000510160012084F85100002084F850001D
:102730000320BDE8F0812068806838EA000005D0F9
:102740000020B842BED10020BDE8F0810120F8E7AA
:102750007047FEF7FDBC000030B593B030216846ED
:10276000FDF778FD14210CA8FDF774FD1C48002529
:10277000016841F080510160006800F080501190C4
:102780001848016841F4404101600068022400F4E7
:102790004040119001200090000401908001CDE99B
:1027A000064006200890A820CDE9090404200B90DB
:1027B0006846FEF77DFE00B1FEE70CA90F2081E818
:1027C00031004FF4A0500F904FF48050109005212D
:1027D0000CA8FEF755FD002800D0FEE713B030BD71
:1027E00040380240007000400F48016841F4700119
:1027F00001600E48016841F0010101600C4A0021AE
:102800001160026822F4102222F080720260031D1F
:10281000084A1A60026822F48022026006480160B9
:10282000064958060860704788ED00E0003802400D
:1028300008380240103000240C38024008ED00E057
:102840000148FFF7E3BA00000C010020F0B4026871
:102850002B4BDFF8B0C02C4D2C4E2D4C98420AD09B
:10286000B0F1804F07D0604505D0A84203D0B042F8
:1028700001D0A04203D122F070024F683A4398423F
:1028800028D0B0F1804F25D0604523D0A84221D078
:10289000B0421FD0A0421DD0A0F1804CBCF5A03C9E
:1028A00018D0A0F1804CBCF5A23C13D0A0F1804C14
:1028B000BCF5A43C0ED0A0F1804CBCF5C05C09D0A6
:1028C000A0F1804CBCF5E05C04D0A0F1804CBCF5DC
:1028D000005C05D122F44072D1F80CC04CEA02022F
:1028E00002608A68C2620A688262984201D0A0428D
:1028F00001D10969016301214161F0BC7047000009
:10290000000001400004004000080040000C0040AE
:102910000004014001238B40D0F820C02CEA0303BF
:102920000362036A02FA01F1194301627047D0F8A9
:1029300008C02CF47F4C42EA0322114341EA0C0107
:1029400081607047826822F07002114341F00701F4
:102950008160704710B4026A22F001020262036AC9
:102960004268D0F818C02CF0700C2CF0030C0C68E6
:1029700044EA0C0C23F002038C682343A0F180444A
:10298000B4F5803404D0A0F18044B4F582340DD184
:1029900023F00803CC68234323F0040322F480725D
:1029A00022F400724C6922438C6922434260C0F8D1
:1029B00018C049684163036210BC704710B4026AD2
:1029C00022F010020262036A4268D0F818C02CF4A8
:1029D000E04C2CF4407C0C684CEA042C23F02003DF
:1029E0008C6843EA0413A0F18044B4F5803404D029
:1029F000A0F18044B4F5823410D123F08003CC6878
:102A000043EA041323F0400322F4806222F40062BC
:102A10004C6942EA84028C6942EA84024260C0F84E
:102A200018C049688163036210BC704710B4026A21
:102A300022F480720262036A4268D0F81CC02CF053
:102A4000700C2CF0030C0C6844EA0C0C23F400739B
:102A50008C6843EA0423A0F18044B4F5803404D0A8
:102A6000A0F18044B4F5823410D123F40063CC6823
:102A700043EA042323F4806322F4805222F40052B8
:102A80004C6942EA04128C6942EA04124260C0F8BE
:102A90001CC04968C163036210BC704710B4026A6D
:102AA00022F480520262D0F820C04268C36923F445
:102AB000E04323F440730C6843EA04232CF4005CE5
:102AC0008C684CEA043CA0F18044B4F5803404D016
:102AD000A0F18044B4F5823404D122F480424C69E0
:102AE00042EA84124260C36149680164C0F820C0B0
:102AF00010BC7047036AD0F820C02CF0010CC0F85D
:102B000020C0D0F818C02CF0F00C4CEA021223F0D0
:102B10000A031943826101627047036A23F01003BC
:102B20000362D0F818C0036A2CF4704C4CEA0232ED
:102B300023F0A00343EA011182610162704710B5DE
:102B4000806B0021C185C184FFF73DFB10BD01688A
:102B5000CA6822F49072CA6001684A6922F00102D0
:102B60004A61202180F83A10704710B50168CA68A0
:102B700022F04002CA60202180F83910FFF731FCB2
:102B8000002010BD10B590F83A10222901D0022083
:102B900010BD8168B1F5805F11D0016919B301687A
:102BA000496801F07F02816A4B1C83620A70C18D03
:102BB000491E0904090CC1851CD0002010BD816A82
:102BC00002693AB102685268D2B20A80816A491C2D
:102BD0008162ECE702685268C2F308020A80816AE7
:102BE000891C8162E3E701684A68816A4B1C836241
:102BF0000A70DCE70168CA6822F49072CA60016852
:102C00004A6922F001024A61202180F83A10FFF758
:102C1000E7FB002010BD00002DE9F04104462068CC
:102C2000016921F44051E268114301612068C168E3
:102C300021F4037121F414412369A268D4F81CC063
:102C40001A43636943EA0C031A431143C1602068C5
:102C5000416921F44071A26911434161E069BC4AB4
:102C6000BC49BD4D3226B0F5004F5ED02068884289
:102C700002D0904240F01281FEF7D2FB00EBC0017F
:102C800001EB001061688900B0FBF1F7FEF7C8FBAB
:102C900000EBC00101EB001061688900B0FBF1F0AE
:102CA000A5FB001040096FF01801484307EB8000B6
:102CB00006EB0010A5FB0010400900F0F007FEF73E
:102CC000AFFB00EBC00101EB001061688900B0FBB5
:102CD000F1F0A5FB0010400907EB0017FEF7A0FB81
:102CE00000EBC00101EB001061688900B0FBF1F856
:102CF000FEF796FB00EBC00101EB00106168890054
:102D0000B0FBF1F0A5FB001040096FF0180148433B
:102D100008EB800006EB0010A5FB00102168C0F353
:102D2000431038448860BDE8F0812068884201D0B3
:102D3000904259D1FEF774FB00EBC00101EB00108B
:102D400061684900B0FBF1F0A5FB001040090701E4
:102D5000FEF766FB00EBC00101EB00106168490063
:102D6000B0FBF1F8FEF75CFB00EBC00101EB0010DB
:102D700061684900B0FBF1F0A5FB001040096FF05D
:102D80001801484308EB800006EBC000A5FB0010CB
:102D9000400900F0F80007EB4007FEF741FB00EBAD
:102DA000C00101EB001061684900B0FBF1F8FEF7CB
:102DB00037FB00EBC00101EB001061684900B0FB7C
:102DC000F1F0A5FB001040096FF01801484308EB33
:102DD000800006EBC000A5FB00102168C0F3421084
:102DE00038448860BDE8F081FEF70AFB00EBC001C3
:102DF00001EB001061684900B0FBF1F0A5FB001089
:102E000040090701FEF7FCFA00EBC00101EB0010DE
:102E100061684900B0FBF1F8FEF7F2FA00EBC0017F
:102E200001EB001061684900B0FBF1F0A5FB001058
:102E300040096FF01801484308EB800006EBC00022
:102E4000A5FB0010400900F0F80007EB4007FEF773
:102E5000D7FA00EBC00101EB001061684900B0FB3C
:102E6000F1F8FEF7CDFA00EBC00101EB001061684C
:102E70004900B0FBF1F0A5FB001040096FF018010C
:102E8000484308EB800006EBC000A5FB001021685A
:102E9000C0F3421038448860BDE8F081FEF7B0FA14
:102EA00000EBC00101EB001061688900B0FBF1F795
:102EB000FEF7A6FA00EBC00101EB00106168890083
:102EC000B0FBF1F0A5FB001040096FF0180148437A
:102ED00007EB800006EB0010A5FB0010400900F096
:102EE000F007FEF78DFA00EBC00101EB00106168FE
:102EF0008900B0FBF1F0A5FB0010400907EB0017BB
:102F0000FEF77EFA00EBC00101EB0010616889005A
:102F1000B0FBF1F8FEF774FA00EBC00101EB001012
:102F200061688900B0FBF1F0A5FB001040096FF06B
:102F30001801484308EB800006EB0010A5FB0010C9
:102F40002168C0F3431038448860BDE8F081000078
:102F500000140140001001401F85EB5190F839101A
:102F6000212901D0022070478168B1F5805F0CD023
:102F7000016A4A1C0262026809785160C18C491ECC
:102F80000904090CC18410D019E0016A026809889B
:102F9000C1F308015160016919B1016A491C01625C
:102FA000ECE7016A891C0162E8E70168CA6822F05F
:102FB0008002CA600068C16841F04001C160002021
:102FC000704700000148FFF7FFB8000084010020AF
:102FD000FEE702E008C8121F08C1002AFAD17047B4
:102FE0007047002001E001C1121F002AFBD1704789
:102FF00000B58BB0012100200891CDE9060144F213
:103000006061CDE900104FF6E071CDE90210059046
:10301000049069460548FDF797FB0448FDF715FF46
:1030200002210248FDF7FAFA0BB000BD8C00002027
:1030300006220146492000F099B90000FEF790F8F9
:10304000FFF78AFBFFF7F2F9FFF754FAFFF7FAFAF6
:10305000FFF7CAF9FFF772FAFFF7A4FAFFF7C8FF04
:103060003B48FEF73EFE3B48FEF72EFE0021394866
:10307000FFF751F804213748FFF74DF8082135488C
:10308000FFF749F80C213348FFF745F8334D314E2F
:10309000314FDFF8CC90DFF8CCB04FF400684FF43C
:1030A000804AA5F1100401213846FEF739F8A178CD
:1030B0006170A0706978287801EB0020316848635E
:1030C00031688863E878A97800EB01203168C8632B
:1030D0000864207809280CD2012251465846FEF790
:1030E0002AF8002241464846FEF725F82078401C81
:1030F0002070C0B209380B280CD200225146584625
:10310000FEF719F8012241464846FEF714F82078E8
:10311000401C20702078142806D151465846FEF7EE
:1031200006F82078401C2070A0780128BBD1607878
:103130000028B8D19FED0C0B53EC102B94ED020B33
:1031400051EC100BFDF791F8C4E90201ABE7000068
:103150000C01002048010020002002401000002047
:103160000010024000140240000000000000F03F88
:10317000F8B50E2277493B2000F0F8F8754800F1C9
:103180000E04018849BA2180418849BA618081884A
:1031900049BAA180C18849BAA1810189628B49BA23
:1031A000891AE1814189A28B49BA891A21828089D1
:1031B000E18B40BA401A60826748FFF739FF664EDC
:1031C000A4F14200503E316D8164B6F85410A0F86D
:1031D0004C10D0F842100160D0F846104160D0F891
:1031E0004A108160B4F90C0000EE100AF8EEC00A33
:1031F0009FED5A1AA4F1420580EE810AF3EE050A0A
:1032000030EE200A85ED030AB4F90E0000EE100A34
:10321000B8EEC00ADFED520AC0EE201A9FED511A37
:1032200081EE810A85ED040AB4F9100001EE900ADE
:10323000B8EEE12AC2EE201A81EE812A85ED052A38
:10324000B4F9120001EE900AB8EEE12AC2EE201A9B
:10325000C1EE810AC5ED060A706998B310EE100A36
:10326000010E8DF80010010C8DF80110010A8DF887
:1032700002108DF8030069463B4800F0F1F86869D8
:10328000010E8DF80010010C8DF80110010A8DF867
:1032900002108DF803006946334800F0F4F8A8697D
:1032A000010E8DF80010010C8DF80110010A8DF847
:1032B00002108DF8030069462B4800F0F7F8002053
:1032C0007061F8BDFFE7B4F9000000EE100AB8EE37
:1032D000C00A10EE100A010E8DF80010010C8DF8D6
:1032E0000110010A8DF802108DF8030069461E488E
:1032F00000F07DF8B4F9020000EE100AB8EEC00A42
:1033000010EE100A010E8DF80010010C8DF801105E
:10331000010A8DF802108DF803006946124800F08A
:1033200079F8B4F9040000EE100AB8EEC00A10EE05
:10333000100A010E8DF80010010C8DF80110010A21
:103340008DF802108DF803006946074800F075F803
:103350000120B5E7F8010020680000205CEFA643DB
:103360006F128341333365428C000020F8B5134F50
:1033700015460E460446002240213846FDF7DBFE86
:103380000F4944F08000372408705631A1F15502EE
:103390000870012356390B480094FEF71BFB0849BF
:1033A0002B463246563107480094FEF713FB0122A4
:1033B00040213846FDF7BFFE0020F8BD0014024052
:1033C00018000020B400002000B587B040F233425E
:1033D000009201220192002203920292042204929E
:1033E0000A4606AB6946FDF72DF907B000BD00B5EA
:1033F00087B040F201420092012201920022039222
:103400000292042204920A4606AB6946FDF71AF9B5
:1034100007B000BD00B587B040F202420092012221
:103420000192002203920292042204920A4606AB01
:103430006946FDF707F907B000BD00B587B040F257
:10344000034200920122019200220392029204227E
:1034500004920A4606AB6946FDF7F4F807B000BDD2
:1034600000B587B040F20152009201220192002281
:1034700003920292042204920A4606AB6946FDF7C3
:10348000E1F807B000BD00B587B040F202520092EB
:1034900001220192002203920292042204920A461F
:1034A00006AB6946FDF7CEF807B000BD00B587B0A2
:1034B00040F20352009201220192002203920292F2
:1034C000042204920A4606AB6946FDF7BBF807B032
:1034D00000BD000000000000000001020304060718
:1034E0000809000000000102030400000C35000878
:1034F000000000208C000000D22F00089835000842
:103500008C0000209C050000E22F00080000000055
:1035100000000000000000000000000000000000AB
:1035200000000000000000000000803F00000000DC
:10353000000000000000000000000000000000008B
:10354000000000000000000000000000000000007B
:10355000000000000000000000000000000000006B
:10356000000000000000000000000000000000005B
:1035700000000000000000000000FF00000000004C
:1035800000000000000000000024F4000100000022
:08359000100000000000000023
:04000005080001AD41
:00000001FF
